:100000000C9446000C9423040C9456040C9489041C
:100010000C94BC040C94EF040C9422050C9455052C
:100020000C9488050C9465000C94530C0C9465009A
:100030000C9465000C9465000C94110C0C946500F4
:100040000C94D10B0C9465000C9465000C94650025
:100050000C9465000C94EF010C9465000C94650001
:100060000C9465000C9465000C9465000C9465007C
:100070000C9465000C94950C0C9465000C94650030
:100080000C9465000C9465000C94650011241FBE4F
:10009000CFEFD0E1DEBFCDBF11E0A0E0B1E0EEE1F7
:1000A000FFE100E00BBF02C007900D92A633B1073D
:1000B000D9F721E0A6E3B1E001C01D92A136B20755
:1000C000E1F70E94CD0D0C94770F0C940000CF93B4
:1000D000DF93CDB7DEB70000DF91CF910895CF93C6
:1000E000DF9300D000D0CDB7DEB79C838B831A821C
:1000F000198287E290E0FC01208187E290E0207E77
:10010000FC01208387E290E0FC0130812B8187E2B3
:1001100090E0232BFC01208386E290E0FC0120810B
:1001200086E290E02064FC012083809100019091A0
:10013000010181309105E9F4000086E290E0FC01C4
:100140008081882F90E0807199270097B1F384E235
:1001500090E0FC018081282F30E085E290E0FC01F6
:100160008081882F90E0982F8827822B932B9A8369
:1001700089838091000190910101009799F400001A
:1001800086E290E0FC018081882F90E080719927C1
:100190000097B1F385E290E0FC018081882F90E028
:1001A0009A83898389819A810F900F900F900F9085
:1001B000DF91CF910895EF92FF920F931F93CF930A
:1001C000DF93CDB7DEB72C970FB6F894DEBF0FBE26
:1001D000CDBFE982FA820B831C832D833E834F833C
:1001E000588769877A878B879C8786E290E0FC0135
:1001F00010828B819C818830910518F080E090E01E
:10020000E1C086E290E0FC0120818B819C81382F47
:1002100086E290E0232BFC01208389819A81823041
:10022000910509F45BC08330910508F08EC00097FA
:1002300029F08130910509F441C087C086E290E041
:10024000FC01208186E290E02068FC01208386E2A8
:1002500090E0FC01208186E290E02062FC01208396
:1002600086E290E0FC01208186E290E02860FC01BB
:10027000208387E290E0FC01208187E290E0207EED
:10028000FC01208387E290E0FC0120818D819E812A
:10029000382F87E290E0232BFC01208386E290E058
:1002A000FC01208186E290E02064FC0120838B85A4
:1002B0009C8590933701809336014AC086E290E096
:1002C000FC01208186E290E02068FC01208387E623
:1002D00090E090933701809336013AC086E290E037
:1002E000FC01208186E290E02068FC01208386E208
:1002F00090E0FC01208186E290E02860FC012083F0
:1003000087E290E0FC01208187E290E0207EFC0102
:10031000208387E290E0FC0120818D819E81382F2F
:1003200087E290E0232BFC01208386E290E0FC0131
:10033000208186E290E02064FC0120838B859C85EF
:10034000909337018093360103C080E090E03AC07B
:100350008F819885009749F487E290E0FC01208125
:1003600087E290E02062FC0120838F819885909342
:1003700001018093000187E290E0FC01208187E287
:1003800090E02F73FC01208389859A858130910547
:1003900049F487E290E0FC01208187E290E020644C
:1003A000FC01208389859A858330910549F487E291
:1003B00090E0FC01208187E290E0206CFC0120832A
:1003C00081E090E02C960FB6F894DEBF0FBECDBF53
:1003D000DF91CF911F910F91FF90EF9008951F92A1
:1003E0000F920FB60F9211240BB60F922F933F93DB
:1003F0004F935F936F937F938F939F93AF93BF932D
:10040000EF93FF93CF93DF93CDB7DEB780913601A3
:1004100090913701FC0109950000DF91CF91FF9188
:10042000EF91BF91AF919F918F917F916F915F916C
:100430004F913F912F910F900BBE0F900FBE0F90D9
:100440001F901895CF93DF9300D000D000D0CDB788
:10045000DEB749835A836B837C838D839E83898136
:100460009A81CC01A0E0B0E087309105A105B105EB
:1004700011F008F0B5C18758904FFC010C94250E7F
:100480008AE690E0FC0120818AE690E02C7FFC0166
:1004900020838AE690E0FC018081282F8B819C815B
:1004A0000097B9F08B819C818130910581F08B811F
:1004B0009C818230910549F08B819C81833091052C
:1004C00011F483E007C080E005C082E003C081E052
:1004D00001C080E0282B8AE690E0FC0120838D811A
:1004E0009E8190933901809338017BC18AE690E028
:1004F000FC0120818AE690E0237FFC0120838AE6CC
:1005000090E0FC018081282F8B819C810097B9F0BD
:100510008B819C818130910581F08B819C8182301F
:10052000910549F08B819C818330910511F48CE019
:1005300007C080E005C088E003C084E001C080E01F
:10054000282B8AE690E0FC0120838D819E81909388
:100550003B0180933A0145C18AE690E0FC0120818D
:100560008AE690E02F7CFC0120838AE690E0FC0183
:100570008081282F8B819C810097B9F08B819C8191
:100580008130910581F08B819C818230910549F009
:100590008B819C818330910511F480E307C080E05A
:1005A00005C080E203C080E101C080E0282B8AE61C
:1005B00090E0FC0120838D819E8190933D0180938A
:1005C0003C010FC18AE690E0FC0120818AE690E0C0
:1005D0002F73FC0120838AE690E0FC018081282FA4
:1005E0008B819C810097B9F08B819C818130910532
:1005F00081F08B819C818230910549F08B819C81B7
:100600008330910511F48CE007C080EC05C080E8D0
:1006100003C080E401C080E0282B8AE690E0FC0162
:1006200020838D819E8190933F0180933E01D9C0AC
:100630008AE590E0FC0120818AE590E02C7FFC01B6
:1006400020838AE590E0FC018081282F8B819C81AA
:100650000097B9F08B819C818130910581F08B816D
:100660009C818230910549F08B819C81833091057A
:1006700011F483E007C080E005C082E003C081E0A0
:1006800001C080E0282B8AE590E0FC0120838D8169
:100690009E819093410180934001A3C08AE590E040
:1006A000FC0120818AE590E0237FFC0120838AE51C
:1006B00090E0FC018081282F8B819C810097B9F00C
:1006C0008B819C818130910581F08B819C8182306E
:1006D000910549F08B819C818330910511F48CE068
:1006E00007C080E005C088E003C084E001C080E06E
:1006F000282B8AE590E0FC0120838D819E819093D8
:100700004301809342016DC08AE590E0FC012081A5
:100710008AE590E02F7CFC0120838AE590E0FC01D3
:100720008081282F8B819C810097B9F08B819C81DF
:100730008130910581F08B819C818230910549F057
:100740008B819C818330910511F480E307C080E0A8
:1007500005C080E203C080E101C080E0282B8AE56B
:1007600090E0FC0120838D819E81909345018093D0
:10077000440137C08AE590E0FC0120818AE590E0E1
:100780002F73FC0120838AE590E0FC018081282FF3
:100790008B819C810097B9F08B819C818130910580
:1007A00081F08B819C818230910549F08B819C8105
:1007B0008330910511F480EC07C080E005C080E82B
:1007C00003C080E401C080E0282B8AE590E0FC01B2
:1007D00020838D819E81909347018093460101C0C3
:1007E000000089E590E0FC018081482F29813A8151
:1007F00081E090E002C0880F991F2A95E2F7242F2C
:10080000282B89E590E0FC01208388E590E0FC013D
:100810008081482F29813A8181E090E002C0880FD1
:10082000991F2A95E2F7242F282B88E590E0FC01F8
:10083000208300000F900F900F900F900F900F905B
:10084000DF91CF9108951F920F920FB60F9211244E
:100850000BB60F922F933F934F935F936F937F93BA
:100860008F939F93AF93BF93EF93FF93CF93DF93B8
:10087000CDB7DEB78091380190913901FC0109951F
:100880000000DF91CF91FF91EF91BF91AF919F91C8
:100890008F917F916F915F914F913F912F910F9029
:1008A0000BBE0F900FBE0F901F9018951F920F92C6
:1008B0000FB60F9211240BB60F922F933F934F93C5
:1008C0005F936F937F938F939F93AF93BF93EF93B8
:1008D000FF93CF93DF93CDB7DEB780913A0190912C
:1008E0003B01FC0109950000DF91CF91FF91EF9151
:1008F000BF91AF919F918F917F916F915F914F9138
:100900003F912F910F900BBE0F900FBE0F901F9035
:1009100018951F920F920FB60F9211240BB60F92DB
:100920002F933F934F935F936F937F938F939F93F7
:10093000AF93BF93EF93FF93CF93DF93CDB7DEB722
:1009400080913C0190913D01FC0109950000DF91EF
:10095000CF91FF91EF91BF91AF919F918F917F9137
:100960006F915F914F913F912F910F900BBE0F9020
:100970000FBE0F901F9018951F920F920FB60F92F7
:1009800011240BB60F922F933F934F935F936F9366
:100990007F938F939F93AF93BF93EF93FF93CF93E7
:1009A000DF93CDB7DEB780913E0190913F01FC010E
:1009B00009950000DF91CF91FF91EF91BF91AF9129
:1009C0009F918F917F916F915F914F913F912F9167
:1009D0000F900BBE0F900FBE0F901F9018951F9297
:1009E0000F920FB60F9211240BB60F922F933F93D5
:1009F0004F935F936F937F938F939F93AF93BF9327
:100A0000EF93FF93CF93DF93CDB7DEB78091400193
:100A100090914101FC0109950000DF91CF91FF9178
:100A2000EF91BF91AF919F918F917F916F915F9166
:100A30004F913F912F910F900BBE0F900FBE0F90D3
:100A40001F9018951F920F920FB60F9211240BB69C
:100A50000F922F933F934F935F936F937F938F9357
:100A60009F93AF93BF93EF93FF93CF93DF93CDB754
:100A7000DEB78091420190914301FC01099500008D
:100A8000DF91CF91FF91EF91BF91AF919F918F91A6
:100A90007F916F915F914F913F912F910F900BBE7E
:100AA0000F900FBE0F901F9018951F920F920FB6C8
:100AB0000F9211240BB60F922F933F934F935F9396
:100AC0006F937F938F939F93AF93BF93EF93FF9316
:100AD000CF93DF93CDB7DEB780914401909145016C
:100AE000FC0109950000DF91CF91FF91EF91BF913B
:100AF000AF919F918F917F916F915F914F913F91B6
:100B00002F910F900BBE0F900FBE0F901F90189556
:100B10001F920F920FB60F9211240BB60F922F93C4
:100B20003F934F935F936F937F938F939F93AF9375
:100B3000BF93EF93FF93CF93DF93CDB7DEB7809151
:100B4000460190914701FC0109950000DF91CF918A
:100B5000FF91EF91BF91AF919F918F917F916F9195
:100B60005F914F913F912F910F900BBE0F900FBE51
:100B70000F901F901895CF93DF9300D000D00F9265
:100B8000CDB7DEB749835A836B837C838D838B819A
:100B90009C818130910509F05EC089819A81CC01E8
:100BA000A0E0B0E086309105A105B10511F008F094
:100BB000C5C08F57904FFC010C94250E8AE390E03E
:100BC000FC0130812D818AE390E0232BFC012083FE
:100BD000B8C087E390E0FC0130812D8187E390E08D
:100BE000232BFC012083ADC084E390E0FC01308125
:100BF0002D8184E390E0232BFC012083A2C081E3BC
:100C000090E0FC0130812D8181E390E0232BFC01F9
:100C1000208397C082E290E0FC0130812D8182E246
:100C200090E0232BFC0120838CC081E690E0FC0146
:100C300030812D8181E690E0232BFC01208381C04F
:100C400084E690E0FC0130812D8184E690E0232B46
:100C5000FC01208376C089819A81CC01A0E0B0E0BC
:100C600086309105A105B10511F008F069C08857DB
:100C7000904FFC010C94250E8AE390E0FC018081EA
:100C8000982F8D818095292F28238AE390E0FC01FD
:100C9000208357C087E390E0FC018081982F8D81ED
:100CA0008095292F282387E390E0FC01208349C009
:100CB00084E390E0FC018081982F8D818095292F1D
:100CC000282384E390E0FC0120833BC081E390E093
:100CD000FC018081982F8D818095292F282381E325
:100CE00090E0FC0120832DC082E290E0FC01808135
:100CF000982F8D818095292F282382E290E0FC0196
:100D000020831FC081E690E0FC018081982F8D81B7
:100D10008095292F282381E690E0FC01208311C0D3
:100D200084E690E0FC018081982F8D818095292FA9
:100D3000282384E690E0FC01208303C0000001C06A
:100D4000000000000F900F900F900F900F90DF9118
:100D5000CF910895CF93DF93CDB7DEB70000DF9139
:100D6000CF910895EF92FF920F931F93CF93DF934C
:100D7000CDB7DEB72C970FB6F894DEBF0FBECDBF50
:100D8000E982FA820B831C832D833E834F8358872D
:100D900069877A878B879C8789819A8183309105BF
:100DA00021F18430910540F582309105B9F083300E
:100DB000910510F5009721F08130910541F01CC09C
:100DC0008AEA96E0909358018093570116C08AEA08
:100DD00096E090935A01809359010FC08AEA96E0F9
:100DE00090935C0180935B0108C08AEA96E090933F
:100DF0005E0180935D0101C0000000002C960FB6DB
:100E0000F894DEBF0FBECDBFDF91CF911F910F9140
:100E1000FF90EF900895CF92DF92EF92FF92CF93E1
:100E2000DF93CDB7DEB7A6970FB6F894DEBF0FBE3F
:100E3000CDBF2F8F38A349A35AA36BA37CA38DA347
:100E40009EA31A8219828CE0E2E0F1E0DE011396A3
:100E500001900D928A95E1F780E1EEE0F1E0DE018C
:100E60001F9601900D928A95E1F78F8D98A183309E
:100E7000910509F4BAC18430910508F03CC2823072
:100E8000910509F434C18330910508F034C200970C
:100E900029F08130910509F4A4C02DC289A19AA13D
:100EA000ABA1BCA148E0BC01CD010E94D10A9A834C
:100EB000898389819A8185309105D1F089819A81D0
:100EC00086309105D0F489819A818330910531F083
:100ED00089819A818430910531F00FC084E090E0DF
:100EE0009A8389830BC086E090E09A83898306C049
:100EF00087E090E09A83898301C0000083E590E059
:100F00002981FC01208387E590E0FC01208187E5B1
:100F100090E02160FC0120838091480181608093F2
:100F2000480189A19AA1ABA1BCA19C01AD0160E8D7
:100F300076E988E990E00E94F30DDC01CB01BC0169
:100F4000CD010E94E90E6B017C0189819A81880F95
:100F5000991F9E012F5F3F4F820F931F0E96FC013A
:100F60004081518128EE33E0429FC001439F900DA4
:100F7000529F900D1124CC01A0E0B0E0BC01CD0146
:100F80000E94E90EDC01CB019C01AD01C701B60155
:100F90000E94480EDC01CB01BC01CD010E94BA0EBB
:100FA000DC01CB019C0180E091E0821B930B9093CC
:100FB0004A01809349012091490130914A0182E51B
:100FC00090E0FC0120838DA19EA1009719F08DA1D6
:100FD0009EA102C08AEA96E090935801809357013F
:100FE0008BC189A19AA1ABA1BCA140E1BC01CD01FB
:100FF0000E94D10A9A8389838AE790E020E0FC016D
:1010000020838FE490E0FC0120838EE490E029812E
:10101000FC0120838091480182608093480187E52C
:1010200090E0FC01208187E590E02460FC012083B2
:1010300089A19AA1ABA1BCA19C01AD0160E876E9B0
:1010400088E990E00E94F30DDC01CB01BC01CD01E9
:101050000E94E90E6B017C0189819A81880F991F9A
:101060009E012F5F3F4F820F931F0296FC0140812C
:10107000518128EE33E0429FC001439F900D529F63
:10108000900D1124CC01A0E0B0E0BC01CD010E9484
:10109000E90EDC01CB019C01AD01C701B6010E9444
:1010A000480EDC01CB01BC01CD010E94BA0EDC016F
:1010B000CB0191958195910990934C0180934B01BF
:1010C0008CE490E020914B0130914C01FC01318384
:1010D00020838DA19EA1009719F08DA19EA102C031
:1010E0008AEA96E090935A018093590105C189A13B
:1010F0009AA1ABA1BCA148E0BC01CD010E94D10ADC
:101100009A83898385E490E02981FC01208387E527
:1011100090E0FC01208187E590E02064FC012083C1
:101120008091480184608093480189A19AA1ABA174
:10113000BCA19C01AD0160E876E988E990E00E94DD
:10114000F30DDC01CB01BC01CD010E94E90E6B0166
:101150007C0189819A81880F991F9E012F5F3F4FE3
:10116000820F931F0296FC014081518128EE33E0EB
:10117000429FC001439F900D529F900D1124CC01BE
:10118000A0E0B0E0BC01CD010E94E90EDC01CB0182
:101190009C01AD01C701B6010E94480EDC01CB01E4
:1011A000BC01CD010E94BA0EDC01CB019C0180E0A4
:1011B00091E0821B930B90934E0180934D012091FF
:1011C0004D0130914E0184E490E0FC0120838DA11B
:1011D0009EA1009719F08DA19EA102C08AEA96E017
:1011E00090935C0180935B0187C089A19AA1ABA118
:1011F000BCA140E1BC01CD010E94D10A9A83898340
:101200008CE890E020E0FC0120838BE890E0FC017A
:1012100020838AE890E02981FC01208380914801A5
:101220008860809348018DE790E0FC0120818DE784
:1012300090E02460FC01208389A19AA1ABA1BCA10C
:101240009C01AD0160E876E988E990E00E94F30D29
:10125000DC01CB01BC01CD010E94E90E6B017C01D8
:1012600089819A81880F991F9E012F5F3F4F820FBE
:10127000931F0296FC014081518128EE33E0429F8A
:10128000C001439F900D529F900D1124CC01A0E00E
:10129000B0E0BC01CD010E94E90EDC01CB019C0154
:1012A000AD01C701B6010E94480EDC01CB01BC01B3
:1012B000CD010E94BA0EDC01CB0191958195910977
:1012C0009093500180934F0188E890E020914F0166
:1012D00030915001FC01318320838DA19EA10097A4
:1012E00019F08DA19EA102C08AEA96E090935E015A
:1012F00080935D0101C000000000A6960FB6F8942F
:10130000DEBF0FBECDBFDF91CF91FF90EF90DF909A
:10131000CF900895CF92DF92EF92FF920F931F9399
:10132000CF93DF93CDB7DEB72E970FB6F894DEBF1D
:101330000FBECDBFC982DA82EB82FC820D831E8391
:101340002F83388749875A876B877C878D879E874D
:1013500089819A818330910509F4B7C08430910561
:1013600008F00EC18230910509F4A8C083309105C0
:1013700008F006C1009729F08130910509F443C0B7
:10138000FFC082E590E0FC01108283E590E0FC0163
:10139000208183E590E02864FC01208383E590E0D0
:1013A000FC0120818B819C81382F83E590E0232BE9
:1013B000FC01208383E590E0FC0120818D819E81EA
:1013C000382F83E590E0232BFC0120832F81388583
:1013D00081E590E0FC01208387E590E0FC0120811D
:1013E00087E590E02160FC0120838D859E85009734
:1013F00019F08D859E8502C08AEA96E09093580187
:1014000080935701BEC08CE490E0FC0111821082F1
:101410008FE490E0FC0120818FE490E02160FC01EA
:1014200020838EE490E0FC0120818EE490E028602F
:10143000FC0120838EE490E0FC0120818B819C8163
:10144000382F8EE490E0232BFC0120838FE490E082
:10145000FC0120818D819E81382F8FE490E0232B29
:10146000FC0120838AE490E02F813885FC013183E0
:10147000208388E490E029853A85FC01318320832C
:1014800088E790E02B853C85FC013183208387E54C
:1014900090E0FC01208187E590E02460FC0120833E
:1014A0008D859E85009719F08D859E8502C08AEAFC
:1014B00096E090935A018093590163C08AEA96E0BE
:1014C00090935C0180935B015CC088E890E0FC0134
:1014D000118210828BE890E0FC0120818BE890E083
:1014E0002160FC0120838AE890E0FC0120818AE8E9
:1014F00090E02860FC0120838AE890E0FC012081D4
:101500008B819C81382F8AE890E0232BFC0120837B
:101510008BE890E0FC0120818D819E81382F8BE843
:1015200090E0232BFC01208386E890E02F81388512
:10153000FC013183208384E890E029853A85FC0111
:101540003183208382E890E02B853C85FC01318348
:1015500020838DE790E0FC0120818DE790E02460FE
:10156000FC0120838D859E85009719F08D859E85D1
:1015700002C08AEA96E090935E0180935D0101C00B
:10158000000000002E960FB6F894DEBF0FBECDBF50
:10159000DF91CF911F910F91FF90EF90DF90CF904F
:1015A0000895CF92DF92EF92FF920F931F93CF9304
:1015B000DF93CDB7DEB7A0970FB6F894DEBF0FBEAE
:1015C000CDBF6C8F7D8F8E8F9F8F48A381E090E081
:1015D0009B838A838AE0EEE1F1E0DE0114960190BC
:1015E0000D928A95E1F78EE0E8E2F1E0DE011E96C9
:1015F00001900D928A95E1F719821982BDC088A1E8
:101600008830D1F58981882F90E0880F991F9E013D
:101610002F5F3F4F820F931F0396FC0180819181C2
:10162000982F88276C01E12CF12C8C8D9D8DAE8D2F
:10163000BF8D9C01AD0160E876E988E990E00E94E9
:10164000F30DDC01CB0108EE13E020E030E0BC013B
:10165000CD01A90198010E94030EDA01C901C81643
:10166000D906EA06FB0640F08981282F30E08A81FE
:101670009B81820F931F86C088A18031E9F5898103
:10168000882F90E0880F991F9E012F5F3F4F820F98
:10169000931F0396FC0180819181CC01A0E0B0E012
:1016A000DC01992788276C017D018C8D9D8DAE8D85
:1016B000BF8D9C01AD0160E876E988E990E00E9469
:1016C000F30DDC01CB0108EE13E020E030E0BC01BB
:1016D000CD01A90198010E94030EDA01C901C816C3
:1016E000D906EA06FB0640F08981282F30E08A817E
:1016F0009B81820F931F46C088A18115D1F58981F6
:10170000882F90E0880F991F9E012F5F3F4F820F17
:10171000931F0D96FC0180819181982F88276C0181
:10172000E12CF12C8C8D9D8DAE8DBF8D9C01AD017A
:1017300060E876E988E990E00E94F30DDC01CB01D6
:1017400008EE13E020E030E0BC01CD01A9019801D2
:101750000E94030EDA01C901C816D906EA06FB0683
:1017600040F08981282F30E08A819B81820F931F6E
:1017700009C089818F5F89838981863008F43FCFD2
:1017800080E090E0A0960FB6F894DEBF0FBECDBF0C
:10179000DF91CF911F910F91FF90EF90DF90CF904D
:1017A00008951F920F920FB60F9211240BB60F924D
:1017B0002F933F934F935F936F937F938F939F9359
:1017C000AF93BF93EF93FF93CF93DF93CDB7DEB784
:1017D000809148018170811541F02091490130913B
:1017E0004A0182E590E0FC012083809157019091AD
:1017F0005801FC0109950000DF91CF91FF91EF9115
:10180000BF91AF919F918F917F916F915F914F9118
:101810003F912F910F900BBE0F900FBE0F901F9016
:1018200018951F920F920FB60F9211240BB60F92BC
:101830002F933F934F935F936F937F938F939F93D8
:10184000AF93BF93EF93FF93CF93DF93CDB7DEB703
:101850008091480186958170811549F08CE490E073
:1018600020914B0130914C01FC0131832083809108
:10187000590190915A01FC0109950000DF91CF9127
:10188000FF91EF91BF91AF919F918F917F916F9158
:101890005F914F913F912F910F900BBE0F900FBE14
:1018A0000F901F9018951F920F920FB60F92112450
:1018B0000BB60F922F933F934F935F936F937F934A
:1018C0008F939F93AF93BF93EF93FF93CF93DF9348
:1018D000CDB7DEB78091480182FB882780F981155A
:1018E00041F020914D0130914E0184E490E0FC01E3
:1018F000208380915B0190915C01FC0109950000BF
:10190000DF91CF91FF91EF91BF91AF919F918F9117
:101910007F916F915F914F913F912F910F900BBEEF
:101920000F900FBE0F901F9018951F920F920FB639
:101930000F9211240BB60F922F933F934F935F9307
:101940006F937F938F939F93AF93BF93EF93FF9387
:10195000CF93DF93CDB7DEB78091480183FB882713
:1019600080F9811549F088E890E020914F0130918D
:101970005001FC013183208380915D0190915E01D3
:10198000FC0109950000DF91CF91FF91EF91BF918C
:10199000AF919F918F917F916F915F914F913F9107
:1019A0002F910F900BBE0F900FBE0F901F901895A8
:1019B000CF93DF930F92CDB7DEB70E94930D89834B
:1019C0008981813029F40E94750D80E090E002C089
:1019D00081E090E00F90DF91CF910895CF93DF9356
:1019E0000F92CDB7DEB70E94930D8983898181154F
:1019F00039F40E94840D0E94A30D81E090E002C0A2
:101A000080E090E00F90DF91CF910895CF93DF9326
:101A1000CDB7DEB780915F01909160010196909300
:101A2000600180935F010000DF91CF910895CF9313
:101A3000DF93CDB7DEB767970FB6F894DEBF0FBE62
:101A4000CDBF1C821B8283E090E09A83898381E072
:101A50008D8349815A816B817C818D810E94BB0578
:101A600081E090E09987888781E090E09F838E8372
:101A700081E08A874E815F81688579858A850E94A9
:101A8000BB0581E090E09E878D8781E090E09C8798
:101A90008B8780E18F874B855C856D857E858F8503
:101AA0000E94BB05198A188A81E090E0A0E0B0E0AE
:101AB0008A8B9B8BAC8BBD8B86E09DE09F8B8E8B46
:101AC000288939894A895B896C897D898E899F89B2
:101AD0000E940B077894000067960FB6F894DEBF5B
:101AE0000FBECDBFDF91CF910895CF93DF93CDB7D8
:101AF000DEB788E390E0FC0120812160FC012083B7
:101B00000000DF91CF910895CF93DF93CDB7DEB77B
:101B100088E390E0FC0120812E7FFC0120830000FF
:101B2000DF91CF910895CF93DF930F92CDB7DEB7BA
:101B300080E390E0FC0180818170898389810F902E
:101B4000DF91CF910895CF93DF93CDB7DEB788E3D0
:101B500090E0FC0120812061FC01208380915F01E5
:101B600090916001893C9105A4F007C088E390E062
:101B7000FC0120812F7EFC01208380915F019091E8
:101B800060018039F1E09F078CF3109260011092A0
:101B90005F010000DF91CF910895CF93DF9300D0D4
:101BA00000D000D0CDB7DEB71A82198288ED9CE054
:101BB0009C838B838EEE9CE09E838D830E94170D09
:101BC00089819A81880F991F9E012F5F3F4F820F55
:101BD000931F0296FC0180819181FC0109959A83F3
:101BE00089830000EDCFDB018F939F930E942E0E1F
:101BF000BF91AF91A29F800D911DA39F900DB29FA9
:101C0000900D11240895A1E21A2EAA1BBB1BFD0101
:101C10000DC0AA1FBB1FEE1FFF1FA217B307E407CB
:101C2000F50720F0A21BB30BE40BF50B661F771F23
:101C3000881F991F1A9469F7609570958095909503
:101C40009B01AC01BD01CF010895EE0FFF1F0024E1
:101C5000001C0BBE0790F691E02D09940E94390EEE
:101C6000A59F900DB49F900DA49F800D911D1124F0
:101C70000895A29FB001B39FC001A39F700D811D65
:101C80001124911DB29F700D811D1124911D089585
:101C90000E945C0E0C943D0F0E94360F58F00E947B
:101CA0002F0F40F029F45F3F29F00C94260F5111BB
:101CB0000C94710F0C942C0F0E944E0F68F3992313
:101CC000B1F3552391F3951B550BBB27AA27621738
:101CD0007307840738F09F5F5F4F220F331F441F45
:101CE000AA1FA9F335D00E2E3AF0E0E832D0915079
:101CF0005040E695001CCAF72BD0FE2F29D0660F66
:101D0000771F881FBB1F261737074807AB07B0E8A8
:101D100009F0BB0B802DBF01FF2793585F4F3AF0AE
:101D20009E3F510578F00C94260F0C94710F5F3F85
:101D3000E4F3983ED4F3869577956795B795F79534
:101D40009F5FC9F7880F911D9695879597F908951C
:101D5000E1E0660F771F881FBB1F621773078407B8
:101D6000BA0720F0621B730B840BBA0BEE1F88F7C7
:101D7000E09508950E94560F88F09F5798F0B92F6C
:101D80009927B751B0F0E1F0660F771F881F991FB0
:101D90001AF0BA95C9F714C0B13091F00E94700FD3
:101DA000B1E008950C94700F672F782F8827B85FE3
:101DB00039F0B93FCCF3869577956795B395D9F708
:101DC0003EF490958095709561957F4F8F4F9F4F12
:101DD0000895E89409C097FB3EF49095809570951E
:101DE00061957F4F8F4F9F4F9923A9F0F92F96E967
:101DF000BB279395F695879577956795B795F111DC
:101E0000F8CFFAF4BB0F11F460FF1BC06F5F7F4F78
:101E10008F4F9F4F16C0882311F096E911C077238A
:101E200021F09EE8872F762F05C0662371F096E893
:101E3000862F70E060E02AF09A95660F771F881F62
:101E4000DAF7880F9695879597F9089597F99F6720
:101E500080E870E060E008959FEF80EC0895002432
:101E60000A941616170618060906089500240A94FF
:101E700012161306140605060895092E0394000C85
:101E800011F4882352F0BB0F40F4BF2B11F460FF14
:101E900004C06F5F7F4F8F4F9F4F089557FD90583D
:101EA000440F551F59F05F3F71F04795880F97FB1E
:101EB000991F61F09F3F79F08795089512161306D8
:101EC0001406551FF2CF4695F1DF08C01616170607
:101ED0001806991FF1CF869571056105089408953C
:101EE000E894BB2766277727CB0197F90895F894E4
:101EF000FFCF40027602AC02E20218034E038403D5
:101F0000BA03DE05E905F405FF050A0615062006F5
:0E1F10003C064A0658066606740682069006CF
:101F1E000100000001000800400000010004000064
:101F2E0001000800200040008000000100040100B4
:101F3E0008004000000100040100080020004000DD
:061F4E0080000001000408
:00000001FF
